:020000040800F2
:100000000004002001020008213E0008213E0008F3
:10001000213E0008213E0008213E0008213E000844
:10002000213E0008213E0008213E0008E12D000885
:10003000213E0008213E0008213E0008213E000824
:10004000213E0008013600087135000841350008DE
:10005000213E0008213E0008E1370008B1370008C2
:10006000813700085137000821370008213E000879
:10007000213E0008213E0008213E0008213E0008E4
:10008000213E0008213E0008213E0008213E0008D4
:10009000213E0008213E0008213E0008B13600083C
:1000A000213E0008213E0008213E0008213E0008B4
:1000B0006133000801340008213E0008213E000899
:1000C000213E0008213E0008213E0008213E000894
:1000D000213E0008213E0008313E0008213E000874
:1000E00031360008D1350008A1350008213E00084E
:1000F000213E0008213E0008213E0008213E000864
:10010000213E0008213E0008213E0008213E000853
:10011000213E0008213E0008213E0008213E000843
:10012000213E0008213E0008213E0008213E000833
:10013000213E0008213E0008213E0008213E000823
:10014000E13400087134000841340008213E000801
:10015000213E0008213E0008213E0008213E000803
:10016000213E0008213E0008213E0008213E0008F3
:10017000213E0008213E0008213E0008213E0008E3
:10018000213E0008213E0008213E0008213E0008D3
:10019000213E0008213E0008213E0008213E0008C3
:1001A000000000000000000000000000000000004F
:1001B000000000000000000000000000000000003F
:1001C000000000000000000000000000000000002F
:1001D000000000000000000000000000000000001F
:1001E000000000000000000000000000000000000F
:1001F00000000000000000000000000000000000FF
:1002000072B63B4880F309883A484EF60851CEF260
:100210000001086040F20000CCF200004EF634719C
:10022000CEF200010860BFF34F8FBFF36F8F40F233
:100230000000C0F2F0004EF68851CEF200010860D6
:10024000BFF34F8FBFF36F8F4FF00000E1EE100A46
:100250004EF63C71CEF200010860062080F314884F
:10026000BFF36F8F04F00CFF04F03AFE22482349DD
:10027000234A91423CBF41F8040BFFF7FABF2149E2
:100280001B4A91423CBF41F8040BFFF7FABF1E49DD
:100290001E4A1F4B9A423EBF51F8040B42F8040B12
:1002A000FFF7F8BF00201B491B4A91423CBF41F8B1
:1002B000040BFFF7FABF04F0A3FE04F0D9FE174CBD
:1002C000174DAC4280F2058054F8041B8847FFF7B5
:1002D000F8BF00F0E5FC134C134DAC4280F20580F2
:1002E00054F8041B8847FFF7F8BF04F0B9BE0000BC
:1002F000000800200000000855555555000000205A
:1003000000040020000400208C6600080008002083
:100310004C0C0020500C0020DCF9002000020008EA
:100320000002000800020008000200082DE9F04F5A
:100330002DED108AC1F80CD0C3689D46BDEC108A23
:10034000BDE8F08F002383F311882846A0470020E2
:1003500004F00EFE04F034FE00DFFEE781F0004101
:1003600002E000BF83F0004330B54FEA41044FEA9A
:10037000430594EA050F08BF90EA020F1FBF54EA35
:10038000000C55EA020C7FEA645C7FEA655C00F0D1
:10039000E2804FEA5454D4EB5555B8BF6D420CDDA2
:1003A0002C4480EA020281EA030382EA000083EA25
:1003B000010180EA020281EA0303362D88BF30BDC5
:1003C00011F0004F4FEA01314FF4801C4CEA11311B
:1003D00002D0404261EB410113F0004F4FEA03337A
:1003E0004CEA133302D0524263EB430394EA050F05
:1003F00000F0A780A4F10104D5F1200E0DDB02FA74
:100400000EFC22FA05F2801841F1000103FA0EF207
:10041000801843FA05F359410EE0A5F120050EF1CD
:10042000200E012A03FA0EFC28BF4CF0020C43FAFE
:1004300005F3C01851EBE37101F0004507D54FF00B
:10044000000EDCF1000C7EEB00006EEB0101B1F55B
:10045000801F1BD3B1F5001F0CD349085FEA3000A1
:100460004FEA3C0C04F101044FEA445212F5800FAC
:1004700080F09A80BCF1004F08BF5FEA500C50F149
:10048000000041EB045141EA050130BD5FEA4C0C2C
:10049000404141EB010111F4801FA4F10104E9D1B5
:1004A00091F0000F04BF01460020B1FA81F308BFAC
:1004B0002033A3F10B03B3F120020CDA0C3208DD78
:1004C00002F1140CC2F10C0201FA0CF021FA02F153
:1004D0000CE002F11402D8BFC2F1200C01FA02F1C3
:1004E00020FA0CFCDCBF41EA0C019040E41AA2BFE8
:1004F00001EB0451294330BD6FEA04041F3C1CDAB0
:100500000C340EDC04F11404C4F1200220FA04F0CF
:1005100001FA02F340EA030021FA04F345EA030179
:1005200030BDC4F10C04C4F1200220FA02F001FA3B
:1005300004F340EA0300294630BD21FA04F02946BD
:1005400030BD94F0000F83F4801306BF81F4801156
:100550000134013D4EE77FEA645C18BF7FEA655CC9
:1005600029D094EA050F08BF90EA020F05D054EA9B
:10057000000C04BF1946104630BD91EA030F1EBFA0
:100580000021002030BD5FEA545C05D140004941A4
:1005900028BF41F0004130BD14F580043CBF01F597
:1005A000801130BD01F0004545F0FE4141F470017D
:1005B0004FF0000030BD7FEA645C1ABF1946104658
:1005C0007FEA655C1CBF0B46024650EA013406BF59
:1005D00052EA033591EA030F41F4002130BD00BF18
:1005E00090F0000F04BF0021704730B54FF48064D5
:1005F00004F132044FF000054FF0000150E700BF56
:1006000090F0000F04BF0021704730B54FF48064B4
:1006100004F1320410F0004548BF40424FF00001A1
:100620003EE700BF42004FEAE2014FEA31014FEAE4
:1006300002701FBF12F07F4393F07F4F81F0605133
:10064000704792F0000F14BF93F07F4F704730B5A2
:100650004FF4607401F0004521F0004120E700BF35
:1006600050EA010208BF704730B54FF000050AE0BC
:1006700050EA010208BF704730B511F0004502D5BD
:10068000404261EB41014FF4806404F132045FEABF
:10069000915C3FF4DCAE4FF003025FEADC0C18BF64
:1006A00003325FEADC0C18BF033202EBDC02C2F15A
:1006B000200300FA03FC20FA02F001FA03FE40EAEC
:1006C0000E0021FA02F11444C1E600BF70B54FF0EC
:1006D000FF0C4CF4E06C1CEA11541DBF1CEA1355CE
:1006E00094EA0C0F95EA0C0F00F0DEF82C4481EA36
:1006F000030621EA4C5123EA4C5350EA013518BF56
:1007000052EA033541F4801143F4801338D0A0FB42
:1007100002CE4FF00005E1FB02E506F00042E0FBEF
:1007200003E54FF00006E1FB03569CF0000F18BFF5
:100730004EF0010EA4F1FF04B6F5007F64F540749D
:1007400004D25FEA4E0E6D4146EB060642EAC62130
:1007500041EA55514FEAC52040EA5E504FEACE2E9D
:10076000B4F1FD0C88BFBCF5E06F1ED8BEF1004FA0
:1007700008BF5FEA500E50F1000041EB045170BD1C
:1007800006F0004646EA010140EA020081EA030160
:10079000B4EB5C04C2BFD4EB0C0541EA045170BD5C
:1007A00041F480114FF0000E013C00F3AB8014F1D6
:1007B000360FDEBF002001F0004170BDC4F100041F
:1007C000203C35DA0C341BDC04F11404C4F12005A0
:1007D00000FA05F320FA04F001FA05F240EA0200FB
:1007E00001F0004221F0004110EBD37021FA04F631
:1007F00042EB06015EEA430E08BF20EAD37070BDEB
:10080000C4F10C04C4F1200500FA04F320FA05F049
:1008100001FA04F240EA020001F0004110EBD3704B
:1008200041F100015EEA430E08BF20EAD37070BDBB
:10083000C4F1200500FA05F24EEA020E20FA04F394
:1008400001FA05F243EA020321FA04F001F0004143
:1008500021FA04F220EA020000EBD3705EEA430EB4
:1008600008BF20EAD37070BD94F0000F0FD101F0E3
:100870000046400041EB010111F4801F08BF013C1C
:10088000F7D041EA060195F0000F18BF704703F05A
:100890000046520043EB030313F4801F08BF013DE1
:1008A000F7D043EA0603704794EA0C0F0CEA13559D
:1008B00018BF95EA0C0F0CD050EA410618BF52EA57
:1008C0004306D1D181EA030101F000414FF000005D
:1008D00070BD50EA410606BF1046194652EA43066B
:1008E00019D094EA0C0F02D150EA013613D195EADF
:1008F0000C0F05D152EA03361CBF104619460AD127
:1009000081EA030101F0004141F0FE4141F4700130
:100910004FF0000070BD41F0FE4141F4780170BD20
:1009200070B54FF0FF0C4CF4E06C1CEA11541DBF85
:100930001CEA135594EA0C0F95EA0C0F00F0A7F887
:10094000A4EB050481EA030E52EA03354FEA0131B4
:1009500000F088804FEA03334FF0805545EA1313C7
:1009600043EA12634FEA022245EA111545EA10658F
:100970004FEA00260EF000419D4208BF964244F126
:10098000FD0404F5407402D25B084FEA3202B61A45
:1009900065EB03055B084FEA32024FF480104FF419
:1009A000002CB6EB020E75EB030E22BFB61A75468D
:1009B00040EA0C005B084FEA3202B6EB020E75EB20
:1009C000030E22BFB61A754640EA5C005B084FEA88
:1009D0003202B6EB020E75EB030E22BFB61A754655
:1009E00040EA9C005B084FEA3202B6EB020E75EB60
:1009F000030E22BFB61A754640EADC0055EA060E21
:100A000018D04FEA051545EA16754FEA06164FEA63
:100A1000C30343EA52734FEAC2025FEA1C1CC0D10F
:100A200011F4801F0BD141EA00014FF000004FF09C
:100A3000004CB6E711F4801F04BF01430020B4F15D
:100A4000FD0C88BFBCF5E06F3FF6AFAEB5EB030C15
:100A500004BFB6EB020C5FEA500C50F1000041EB12
:100A6000045170BD0EF0004E4EEA113114EB5C04DF
:100A7000C2BFD4EB0C0541EA045170BD41F48011B2
:100A80004FF0000E013C90E645EA060E8DE60CEABA
:100A9000135594EA0C0F08BF95EA0C0F3FF43BAFD7
:100AA00094EA0C0F0AD150EA01347FF434AF95EA8E
:100AB0000C0F7FF425AF104619462CE795EA0C0F72
:100AC00006D152EA03353FF4FDAE1046194622E73F
:100AD00050EA410618BF52EA43067FF4C5AE50EA19
:100AE00041047FF40DAF52EA43057FF4EBAE12E709
:100AF0004FEA4102B2F1E04324BFB3F5001CDCF140
:100B0000FE5C0DD901F0004C4FEAC0024CEA507077
:100B1000B2F1004F40EB830008BF20F001007047A6
:100B200011F0804F21D113F13872BCBF01F00040A9
:100B3000704741F480114FEA5252C2F11802C2F1DB
:100B4000200C10FA0CF320FA02F018BF40F001005C
:100B50004FEAC1234FEAD32303FA0CFC40EA0C000E
:100B600023FA02F34FEA4303CCE77FEA625307D14B
:100B700050EA01331EBF4FF0FE4040F44000704782
:100B800001F0004040F0FE4040F40000704700BF1C
:100B90004FF0FF3C06E000BF4FF0010C02E000BF49
:100BA0004FF0010C4DF804CD4FEA410C7FEA6C5C2C
:100BB0004FEA430C18BF7FEA6C5C1BD001B050EACF
:100BC000410C0CBF52EA430C91EA030F02BF90EABA
:100BD000020F0020704710F1000F91EA030F58BF79
:100BE000994208BF90422CBFD8176FEAE37040F0DB
:100BF000010070474FEA410C7FEA6C5C02D150EA79
:100C0000013C07D14FEA430C7FEA6C5CD6D152EA33
:100C1000033CD3D05DF8040B704700BF84461046F8
:100C200062468C461946634600E000BF01B5FFF7F7
:100C3000B7FF002848BF10F1000F01BD4DF808EDC7
:100C4000FFF7F4FF0CBF012000205DF808FB00BF98
:100C50004DF808EDFFF7EAFF34BF012000205DF8F2
:100C600008FB00BF4DF808EDFFF7E0FF94BF01203F
:100C700000205DF808FB00BF4DF808EDFFF7CEFF40
:100C800094BF012000205DF808FB00BF4DF808ED7F
:100C9000FFF7C4FF34BF012000205DF808FB00BF50
:100CA000BE4BBF489A6A4FF0FF3100222DE98048C1
:100CB00099629A621C6919611A61DC68D960DA600C
:100CC000D96941F08051D961016841F480710160B6
:100CD000196A01F44071B1F5007F8DB003D04FF473
:100CE000803119621A62AD4B1A6A120407D41A6A6B
:100CF00042F400721A621A6A42F400421A62A74D64
:100D0000A84AA969DFF8E492DFF8E4A2DFF8E482F8
:100D1000DFF8E4C2DFF8E4E2DFF8E4B2A24FA34870
:100D2000A34BA44E41F00101A961116841F02001DB
:100D3000116069694FF0904241F47F0100246961BC
:100D40006FF40A6154609160C2F80C904FF6DF7145
:100D50004FF4EE495161C2F820904FF0FF315462D8
:100D60004FF05539C2F800804FF6FF724FF08008FF
:100D7000CAF80440CAF80810CAF80C90CAF814203F
:100D8000CAF82040CAF82440CAF80080DFF874A2EC
:100D9000CCF80440CCF80810CCF80CA0DFF868A21E
:100DA000CCF81420CCF82040CCF82440CCF80040FB
:100DB000CEF80440CEF80810CEF80C90CEF81420EF
:100DC000CEF82040CEF82440CEF80040CBF80440C6
:100DD000CAF80440DFF834A2CBF80810CAF804407F
:100DE000CBF80C90CBF81420CBF82040CBF8244063
:100DF000CBF80040DFF818B27C60B960C7F80CB0DF
:100E00007A613C627C623C6044608460C0F80C9013
:100E1000426104624462046067485C60CAF80C0086
:100E2000DFF8E4A19C600127DFF8E8E1C3F80C904B
:100E3000B4465A611C625C621C608AF80070DFF87C
:100E4000CCA15E488AF800704FF010094023C02200
:100E50004CF8040B7461C6F838908EF82623CEF84F
:100E60008431CEF80430D5F81CA05548C6F804C02B
:100E70004AEA070CC5F81CC0524B534AD0F808C0C8
:100E8000B36173623362F263B26472644B444A4486
:100E90004E4DF36132644FF080434CEA070CDFF8AB
:100EA00078B1DFF878A14A4AC6F84CB0C6F854A029
:100EB000B2653772B462F662366506F10C0AC0F8A4
:100EC00008C006F130024FF0805C40F60F6BC3F8AB
:100ED00028B006A8C6F80CA0D962C6F810A09C617C
:100EE00005F11C0A32635C637263DC6000225C60A3
:100EF0005F611F608EF81C830023CEF880C1CEF89E
:100F000000C02D606D60CDE90A2306916962C5F8C5
:100F10001CA0C5F820A0079408940994AC602D612A
:100F20006D61AC626C6701F093FF06A802F070FC83
:100F3000284B2949294A1A6029482A4A08602A4820
:100F4000D2F80CB004900499DFF8D4E0DFF8D4C0F4
:100F5000CEF800C04FF6FF000BEA00000143D5F8C1
:100F600014C004910899C5F83880C5F86C80696789
:100F700003EB09080499DFF8B0E0DFF8B0A085F8CA
:100F8000514005F130006C6685F852709C61C5F8DF
:100F900044C0C3F81080C3F8148049E00010024038
:100FA0000070004000000140001400480018004894
:100FB000001C0048600E00200004004098630008F8
:100FC000002004E03C0E0020BC0C0020C80E0020D5
:100FD00080A81201680C0020CC0C0020012E000813
:100FE0000000012000ED00E00003FA050551556501
:100FF00000040048A004002800080048000C004835
:101000000010004855555501D0F90020540F00201C
:101010005055555500E100E0D12D00080044004036
:10102000D40C0020E0F90020F0ED00E0506300084F
:10103000AC662D64C5F848A0CCF81000D160DEF88D
:101040000CC0AA499C604CF0807CCEF80CC0D1F852
:1010500000C0DC6005F1580805F15C034CEA070CA0
:101060004FF0200E6861A861EC6485F85070C5F8F7
:101070005880EB652B66C1F800C082F81F9082F89B
:1010800022E084F3118862B6202383F31188984B01
:10109000DFF89CE2DFF89CB2DFF89C922A4601243C
:1010A000AD69C3F82041AF68D2F814C0C3F8F4E0CA
:1010B00003F1B408002103F58C70C3F8248103F513
:1010C000A27E4FF0020A03F5A078C3F82CC1C3F842
:1010D0003431C3F82821C3F814B183F838A1C3F818
:1010E0003091C3F8544183F83A41C3F8F81083F8BB
:1010F0003911C3F85011C3F84C11CCF810005061ED
:10110000C3F83C11C3F84081C3F844E1C3F848E197
:10111000002F01F0318383F838111268916800299B
:10112000FBD15468C3F81C41C3F8182120605060FB
:1011300081F311886F4B4FF416421A60202282F31C
:101140001188327A012A26D0B06D5968D3F800E0B0
:101150009F68DD68736D684AB0FBFEFE47F040078C
:1011600041F49674C3F80CE045F001055F6044F06B
:1011700001044FF0FF304F059D601C60186210D5D0
:1011800011F0102101F0FB82B1F1805F09D13F2302
:1011900082F85C3007E0594AD16941F40031D161ED
:1011A000D2E782F85C0002233372002383F31188B4
:1011B0004FF09040042140F2823202F021F84FF0CB
:1011C0009040082140F2823202F01AF84C49009116
:1011D0004C4A4D494D4B4848DFF86081DFF860A12B
:1011E000DFF860914A4CDFF860B14A4F9FED4A8AC0
:1011F00001F096FE02F0FCFE0025C8F8005003F056
:1012000007FB4138CAF80050C9F80050362800F2F0
:101210008A84DFE810F07D05880488045F05C7052F
:10122000BD055C043C041A050305A9048F04D5051B
:10123000A905FF03B4035F039A020502880488042A
:1012400080016F024502EE02880488048804880445
:10125000880488048804880488048804880488042E
:10126000880488048804880463015201880488047F
:101270008804880488040001880488048804880499
:101280009D003700254900250D6003F0D1FA244B5D
:1012900022681860C2F5EA4330339BB29842204975
:1012A00001F3D6811F4EDFF8A4C01F49831806EB57
:1012B00043030028CCF800300B600CDD1B4A166895
:1012C00003F0B6FADFF858C0DCF8003026F8150055
:1012D00001359D42F2DB03F073FA002800F017811C
:1012E000B52002F0FDFB02F0EBFB10E1001000E086
:1012F000D80C00209C0C0020600E00200010024042
:1013000030640008086400080064000828640008CD
:10131000CCF90020940C002000247449440F0020D4
:101320008C0C00206C0F0020B80C0020D00C00208A
:10133000412E000845030008F8630008500C002007
:101340004C0E0020540C0020680F00204C0F002091
:1013500003F06EFA9D4B9D4918601A68236802FBE2
:1013600003F20A6003B90B6003F02AFA00283FF485
:1013700043AF974D974EB52002F0B2FB03F040F912
:101380002A68DFF880C294489449954D0023CBF831
:1013900000303360CCF8003003600B602B60002A13
:1013A00001F087818F4EDFF874C23268DCF80030BC
:1013B0008D4802FB03330360DFF84CC28B488C4A34
:1013C0008C490023CCF800303B60526903688A489E
:1013D00022EA03030B6003F0D3F8884AD2ED007AC7
:1013E00067EE887AFDEEE77A17EE900A01F060FD6D
:1013F000DBF8002022B93A60DBF80030002BFAD08D
:1014000001F076FD01F02CFD01F0EAFE02F0B0FBE8
:1014100002F056FBF0E67A480023036003F008FA76
:101420006A49774A08600B680BB901231360674B60
:10143000664D1A68236803FB02F32B6003F0C0F9C2
:1014400000283FF4D9AEB52002F04AFB6D4E03F000
:10145000D7F86D4ADFF884C161496C480023CBF8A6
:1014600000303360CCF800300B6013603B6003F059
:1014700087F8624BD3ED007A67EE887AFDEEE77A63
:1014800017EE900A01F014FDDBF8002022B93A6053
:10149000DBF80030002BFAD001F02AFD01F0E0FC6F
:1014A00001F09EFEDAF80030002B40F0BA87564D6E
:1014B0002B68002B40F05F826AE303F081F900287B
:1014C0003FF49AAEB52002F00BFB494B1869C0F30C
:1014D0000C0002F01DFB02F0F3FA8DE603F0A8F910
:1014E000054603F0A5F9002800F08387C0F30C0639
:1014F00003F066F958B13E4B5A69354022EA0602BC
:101500002A435A61B52002F0EBFA02F0D9FA4048BA
:101510000023036070E603F08BF92C492268086011
:101520000B4609680AB93B4D2A6802FB01F21A60B2
:1015300003F046F900283FF45FAE254E284DB52054
:1015400002F0CEFA03F05CF8DFF888C02D4822499B
:1015500032680023CBF80030CCF8003003600B6019
:101560002B60002A01F0AF801E4EDFF8B0C0326859
:10157000DCF800301C4802FB03330360DFF888C04E
:101580001A481B4A1B490023CCF800303B605269C3
:101590000368214822EA03030B6002F0F1FF174AB7
:1015A000D2ED007A67EE887AFDEEE77A17EE900AC0
:1015B00001F07EFCDBF80020002A7FF421AF3A60C6
:1015C000DBF80030002BFAD01AE700BF1808002023
:1015D000400F0020580C0020580E0020380E00202C
:1015E000640F002004080020980C0020B40C002098
:1015F00000080048B00C0020C86300080C08002058
:10160000D8F90020500E0020900C0020E86300085C
:1016100010080020440F00208863000814080020F0
:1016200003F0F6F8944E0546306003F0F1F8DFF869
:1016300050C20C28CCF8000000F3D886042DD4BF8B
:101640000025012503F0F4F88C49086003F0B8F890
:1016500000B38B4A1368002B00F00487864B186890
:101660000130DFF82CC22368DCF80010834E0B44F5
:101670003268C3F5EA4330339BB202FB00F29A4270
:1016800000F3EB86002D40F0E886B52002F028FA42
:1016900002F016FADFF820C20023CCF80030ABE5E8
:1016A00003F0B6F8774B784D186003F0C1F8236863
:1016B000286003B92B60744E326802FB03F3336079
:1016C00003F07EF800283FF497ADB52002F008FA49
:1016D000DFF8B0C1DCF80030013B072B00F2488591
:1016E000DFE813F04906650638062F061606C90519
:1016F0009E053505654A6649002515600D6003F0B5
:1017000097F847F2305398422060624A00F3B1875D
:101710006149624A624EDFF8B8C101EB400300281C
:1017200013603360CCF800307FF7D5AD5D4E03F029
:101730007FF8236826F8020F01359D42F7DB03F09E
:101740003FF800283FF4E3AECAE54FF0FF315648BA
:1017500003F006F8D8F800304340C8F800300646D9
:1017600003F066F80546A6F1800007EE900AF8EE51
:10177000E77A17EE900AFEF755FF9FED3D0B41EC1F
:10178000110B03F085FCA5F59C40203807EE900A6C
:10179000F8EEE77A53EC102B17EE900A8DED030A62
:1017A0000293FEF73FFF039A029BFEF78FFFFFF7BE
:1017B0009FF93E49086003F003F8B0B13B4A9FED42
:1017C0003C7AD2ED007AF4EEC77AF1EE10FA07D443
:1017D0009FED387AF4EEC77AF1EE10FA40F3858780
:1017E000E22002F07DF902F06BF9334D00232B600B
:1017F00002E502F0E5FF00283FF4FEACB52002F060
:101800006FF902F0FDFE1E482C492D4D02680023A1
:101810000B602B60CBF80030002A00F04087164E9A
:10182000DFF858C03268DCF80030264802FB03338A
:101830000360DFF898C024480023CCF800303B60F8
:1018400002F09EFE1948D0ED007A67EE887AFDEE30
:10185000E77A17EE900A01F02BFBDBF80020002A54
:101860007FF4CEAD3A60DBF80030002BFAD0C7E54C
:10187000000000000000244004080020140800209C
:10188000400F0020540E002018080020440F0020B4
:101890008C0C0020CCF900206C0F0020D00C002014
:1018A0004C0F00206A0F00206C0E00200C08002056
:1018B00082A87B370000704210080020580C0020DE
:1018C000580E0020980C002078630008900C00202F
:1018D000B80C0020B24900230B6002F0A9FFB14A06
:1018E00010601368AE4A0BB9012313602368002B04
:1018F00000F08C85AB4D2A6802FB03F32B6002F0ED
:101900005FFF00283FF478ACB52002F0E9F8A64D5F
:10191000A64E02F075FEA64AA649A7480023CBF8BA
:1019200000300B6013602B603B6002F029FED6EDA7
:10193000007A67EE887AFDEEE77A17EE900A01F0FA
:10194000B7FADBF8002022B93A60DBF80030002B50
:10195000FAD001F0CDFA01F083FA01F041FCDAF897
:101960000030002B40F05D85DFF83CC2DCF8003031
:10197000002B00F00D81012002F0B2F80BE102F023
:1019800057FF8E4B186002F01BFF00283FF434AC69
:101990008B4D8C4EB52002F0A3F802F031FE2B687F
:1019A00089483168894D8A4E80FB03C0DA17DFF819
:1019B00064C2C2EB60000022CBF800202A603060D5
:1019C000CCF80020002900F088868248824902680D
:1019D00002FB03330B60DFF8D0C180480023CCF852
:1019E00000303B6002F0CCFD7048D0ED007A67EE2D
:1019F000887AFDEEE77A17EE900A01F059FADBF8E3
:101A00000020002A7FF4FCAC3A60DBF80030002BA9
:101A1000FAD0F5E402F00CFF714B186002F008FFF9
:101A2000704B002800F0ED84C0F30C0018606E4D80
:101A300021682B686A4E1944C1F5EA433268303395
:101A40009BB29342C0F2BF8553186849684D01EBC1
:101A50004303002A2B60C8BF00257FF73CACDFF8AA
:101A6000B8C1DCF8006002F0E3FE5E49DFF870C147
:101A70000B68DCF80020184026F815000135954267
:101A8000EDDB02F09DFE00283FF441AD28E402F0BA
:101A9000BFFE054602F0BCFE064602F091FE00289D
:101AA00000F034830C2D00F39D840A3E0B2E00F2CF
:101AB0009984DFE816F0300320033E03970497046F
:101AC000970497049704970497043703450302F09B
:101AD000AFFE4849086002F09BFE474A106002F0E2
:101AE00097FE464B1860002800F0878407EE900AA6
:101AF0002E484349B8EE677AD0ED007AC7EE277AD0
:101B000001220A60FDEEE77AC3ED007A3D4B002525
:101B10001D6002F055FE00283FF46EAB364E336870
:101B2000012B40F2AA84E22001F0DAFF01F0C8FFA5
:101B3000FFF762BB02F044FE00283FF45DABB52026
:101B400001F0CEFF304E5025294630484FF0FF328D
:101B500001F086FFD9F800306B4016F8015FC9F834
:101B60000030002DF0D116E002F052FE054602F0E2
:101B700027FE00283FF440AB0C2DD4DCB52001F04B
:101B8000AFFF234B1B6923FA05F5EB073FF5F3AED7
:101B9000002001F0A5FF01F093FFFFF72DBB00BF70
:101BA000D8F9002018080020900C00200C08002014
:101BB000640F0020500E0020D86300085C0E002047
:101BC00014080020400F002067666666580C00204D
:101BD0005C0C002004080020980C0020B86300086A
:101BE000440F0020B40C00208C0C00206C0F00204F
:101BF000B80C0020480F0020880C0020C00E0020E8
:101C0000C40E0020600C002034640008900E0020F8
:101C100000080048580E00204C0F002002F0F8FD8C
:101C2000054602F0F5FD064602F0CAFD00283FF425
:101C300031AD0C2D00F35E85002E00F017840122DB
:101C4000C24B02FA05F59D611FE5C14DD5ED008A35
:101C500002F0B6FD00283FF4CFAADFEDBE7ABE4EFB
:101C6000B52068EEA78A01F03BFF022001F038FFA3
:101C7000082001F035FF47F2305001F049FFFDEE3A
:101C8000E88A3C20002101F0EBFF0F206FF00501F6
:101C900001F0E6FF18EE900A6FF0020101F0E0FF9C
:101CA0003C20032101F0DCFF6FF0020118EE900AE6
:101CB00001F0D6FF0C2001F013FF0C2001F010FF03
:101CC0000D2001F00DFF306801F00AFF01F0F8FE71
:101CD000FFF792BA02F09CFD054602F0A9FD064608
:101CE00002F06EFD00283FF487AA012D00F0D28497
:101CF000022D7FF418AF994B36115E61B52001F0CB
:101D0000EFFE01F0DDFE944A00231360FFF774BA82
:101D100002F07EFD054602F053FD00283FF46CAA58
:101D20006B1E072B3FF6FFAEDFF840C2DCF8006009
:101D3000002EC0F21D850026023D8949894A8A4B42
:101D4000DFF844E2049505963546DDF810C0BCF195
:101D5000060F00F29D81DFE81CF01B016C014F01B2
:101D600097004B00C900690302F062FD054602F0CE
:101D700027FD00283FF440AA002D7C4908BF01251B
:101D8000B5200D6001F0ACFE01F09AFEFFF734BA09
:101D9000774B00937749784A784B794801F0C0F83F
:101DA000FFF72ABA02F00CFD00283FF425AA02F042
:101DB0001FF9694A0123B520136001F091FEEAE69C
:101DC00002F0FEFC00283FF417AAB52001F088FEBF
:101DD000382001F085FE292001F082FE122001F05A
:101DE0007FFE012001F07CFE01F06AFEFFF704BADD
:101DF0005869DFF898C140F460605861DCF8180059
:101E000040F00100CCF81800DEF8000040F00100BE
:101E1000CEF80000DEF8000040F06000CEF80000D0
:101E2000DEF8000020F00C0040F00400CEF80000C6
:101E3000186B20F00F001863186B20F4F86040F066
:101E4000C0001863986840F0040098601868400764
:101E5000FCD5454E306C2DB1DDF814C00CEB001CE8
:101E6000CDF814C0414806680135B5427FF76DAF23
:101E7000B52001F035FE0599B1FBF6F001F048FE02
:101E800001F01EFEFFF7B8B95869DFF800C140F451
:101E900060605861DCF8180040F00100CCF81800D0
:101EA000DEF8000040F00100CEF80000DEF800008F
:101EB00040F06000CEF80000DEF8000040F00C00BA
:101EC000CEF80000186B20F00F001863186B20F498
:101ED000F86040F0C0001863986840F00400986013
:101EE00018684607FCD5204E306CB4E75069DFF81F
:101EF0009CC0244E40F038005061DCF8180040F0DF
:101F00000100CCF81800306840F001003060306803
:101F100040F060003060306820F00C003060106BE2
:101F200020F00F001063106B20F4F86040F04000C8
:101F30001063906840F00400906010684607FCD57C
:101F4000DFF820C0DCF8400085E700BF000800484B
:101F50000808002000007A441008002000740040A7
:101F6000000500500004005000010050000800204F
:101F70003064000800640008086400082864000851
:101F8000600E0020400001403C0001400010024073
:101F90005869DFF83CC340F460605861DCF8180011
:101FA00040F00100CCF81800DEF8000040F001001D
:101FB000CEF80000DEF8000040F06000CEF800002F
:101FC000DEF8000020F00C0040F00800CEF8000021
:101FD000186B20F00F001863186B20F4F86040F0C5
:101FE000C0001863986840F00400986018684007C3
:101FF000FCD5B44E306C2EE74FF0A04084464669C5
:1020000046F038064661066B26F00F060663066B3F
:1020100026F4F86646F040060663866846F0040635
:102020008660DCF8000040074FF0A046F9D5306C20
:1020300011E74E69DFF898C2A34846F460664E6126
:10204000DCF8186046F00106CCF81860066846F027
:1020500001060660066846F060060660066826F01F
:102060000C0646F004060660086B20F00F000863BB
:10207000086B20F4F86040F0C0000863886840F006
:102080000400886008684607FCD5904E306CE2E694
:1020900050698F4EDFF870C240F038005061B0696F
:1020A00040F00100B061DCF8000040F00100CCF825
:1020B0000000DCF8000040F06000CCF80000DCF824
:1020C000000020F00C0040F00800CCF80000106B7D
:1020D00020F00F001063106B20F4F86040F0400017
:1020E0001063906840F00400906010684607FCD5CB
:1020F000784E306CAFE60121A9407748202201F0EC
:102100007FF8B52001F0ECFC01F0DAFC734E0023FF
:102110003360FFF771B80121A9406F48002201F038
:102120006FF8EEE7012202FA05F16B4801F068F85A
:10213000E7E70121A9406848402201F061F8E0E7A3
:102140000121A9406448052201F05AF8D9E75F4B04
:102150005A6922F4603242F480325A611A6B22F0DA
:102160000F021A631A6B22F4F86242F4A0721A6327
:102170005B485C4902685C48DFF880C15B4D5C4E9F
:10218000026000235B48CBF800300B602B603360AB
:10219000CCF800303B6002F0F3F95749D1ED007AFA
:1021A00067EE887AFDEEE77A17EE900A00F080FE7F
:1021B000DBF8002022B93A60DBF80030002BFAD0BF
:1021C00000F096FE00F04CFE01F00AF8DAF800305C
:1021D000002B40F02681494A1568002D7FF4CBABD7
:1021E000284601F07DFC012001F07AFC444B3C4E76
:1021F000186801F075FC306801F08AFC3368002B28
:102200007FF7C9ACDFF804C1DCF8003033F8150003
:1022100001F07EFC3248036801359D42F2DBBAE4EE
:102220002C4B2B4E5A69DFF8E0C022F0380242F006
:1022300010025A61B26942F00102B261DCF800207A
:1022400042F00102CCF80020DCF8002042F06002ED
:10225000CCF80020DCF8002022F00C02CCF80020A2
:102260001A6B22F00F021A631A6B22F4F86242F022
:1022700040021A637CE7134B154D5969214A21F43A
:10228000606141F480615961A96941F00101A9616E
:10229000116841F001011160116841F060011160A5
:1022A000116821F00C0141F0040111601A6B22F059
:1022B0000F021A631A6B22F4F86242F0C0021A632A
:1022C00056E700BF000100504400014000050050E7
:1022D00000100240000400500008004810080020D0
:1022E00014080020580C0020980C0020500E0020EC
:1022F000580E00209C6400080C080020900C002060
:10230000400F00203C00014040000140B80C00207C
:10231000B44BB5485969B54A21F4606141F4806114
:102320005961816941F001018161116841F0010148
:102330001160116841F060011160116841F00C01F9
:10234000B3E74FF0A0435A6922F0380242F010027E
:102350005A6185E7A64BDFF890C25969A54A21F476
:10236000606141F480615961DCF8181041F00101AD
:10237000CCF818108CE7A04B9B495A699F4D22F06E
:10238000380242F010025A618A6942F001028A6101
:102390002A6842F001022A602A6842F060022A603C
:1023A0002A6822F00C0242F008022A6058E78D4B9E
:1023B0008D4E59698D4A21F4606141F48061596103
:1023C000B16941F00101B161116841F00101116091
:1023D000116841F060011160116821F00C0141F0B9
:1023E000080162E7E22001F07BFB8DE60125FFF7A3
:1023F00029B941F6FF76FFF77BB8814A1060FFF7F5
:1024000085BB41F6FF721A60FFF711BB7D4EDFF806
:1024100034C23268DCF8003003FB02F33360FFF7AC
:102420006EBA032001F05CFBFFF7B5BB486940F4CE
:1024300060304861086B20F00F000863086B20F4DF
:10244000F86040F4A0700863886840F00400886079
:1024500008684007FCD5664E18E6E22001F040FB14
:10246000FFF716B9684E3068FFF7FBB81035012248
:10247000664BAA409A61FFF708B9B52001F030FB1E
:1024800002F0BEF8DFF8ACC16148DCF80030CBF8F0
:10249000005003EBD3725210026001685D4EDFF80A
:1024A000A8C15D48CCF80050056032685B4D591AF0
:1024B0002960002A00F02581534EDFF890C1326870
:1024C00002FB0333CCF80030554A564D564E574860
:1024D000002313602B603B6002F052F8D6ED007AC7
:1024E00067EE887AFDEEE77A17EE900A00F0E0FCDE
:1024F000DBF8002022B93A60DBF80030002BFAD07C
:1025000000F0F6FC00F0ACFC00F06AFEDAF80030F7
:10251000002B86D1DFF80CC1DCF80030002B7FF4F3
:102520002AAA43490868002840F0198101F0D8FA26
:10253000354A404E1068154601F0D2FA354B1868FE
:1025400001F0CEFA306801F0E3FADFF8C8C0326873
:10255000DCF8003002EBD2704010002B00F0048158
:1025600029684D1C0595344E35681544281A0130EC
:1025700090FBF2F602FB16060029049640F3CA808F
:102580000025002A16DD002604992C4B314491FBCE
:10259000F2F002FB10120599186801FB0252013695
:1025A00030F8120001F0B4FADFF888C0DCF800203F
:1025B000B242E9DC1448036801359D4280F2A880EC
:1025C0001C4B1A68DDE7DFF878C01C480CEB4101B2
:1025D00000230160E220336001F082FA01F070FA1A
:1025E000FEF795BF00010050001002403C00014082
:1025F000000500504400014000040050400001402C
:10260000C40E00201808002004080020000800481C
:10261000AC0C0020400F0020580E0020500F00206E
:10262000640C0020900C00200C0800206863000857
:10263000600C0020140800205C0C0020B80C002066
:102640006C0F0020440F0020580C0020980C002034
:102650004D4EDFF840C14D4B0D6006EB4202E220CB
:10266000CCF800201A6001F03BFA01F029FAFEF7DD
:102670004EBF1560DFF814C1454D464E424B2B60EE
:10268000E2203360CCF8003001F02AFA01F018FAA9
:10269000FEF73DBF404B36119E60FFF72FBB3F4911
:1026A0003F4D0B682A683F4E02FB03F33360FFF790
:1026B000C0B83A493A4D0B682A683A4E02FB03F318
:1026C0003360FEF779BE3549354D0B682A68354EC3
:1026D00002FB03F33360FEF751BF304D314E2A68E1
:1026E00002FB03F33360FFF776B9B52001F0F8F988
:1026F000FFF779B8E22001F0F3F901F0E1F9FEF714
:10270000C9BF26482749026802FB03F30B60DBE6DA
:1027100025490B68002B3FF43EAA214D2B68002B66
:102720007FF739AA059E00250499DFF870C0294477
:1027300091FBF3FE03FB1E13DCF80000134903FBBF
:1027400006000B6833F81000C0F30C0001F0E0F94C
:10275000134A13680135AB42E6DCFFF71CBA0220CE
:1027600001F0BEF9FFF717BA2D6805952946FAE67C
:1027700000210591FFF77CBB85F82070FEE77F23E1
:1027800082F85C30FEF70FBD6C0F0020B80C002003
:10279000D00C00204C0F00200074004004080020E2
:1027A00014080020980C0020400F0020AFF3008098
:1027B00010B4202383F3118890F82030072B0ED813
:1027C000DFE803F0280D0D2408040D08436A9A6819
:1027D00001329A6090E80C001A60026853604FF072
:1027E000FF34002281680E4B446280F820201B6871
:1027F0009A688A42FBD25A684260036000211060E6
:10280000586081F311885DF8044B7047436A0022D9
:102810001A60E4E7002383F311885DF8044B7047E6
:10282000C80E0020AFF30080AFF30080AFF300804C
:10283000F0B400F10B0700F10A050C46B1FBF2F60B
:1028400002FB161101F13003392BC8BF01F1370328
:10285000DBB2B4FBF2F431462E4605F80139002C08
:10286000ECD1B91B3246014401E012F8013F00F8F7
:10287000013B8842F9D1F0BC704700BFAFF3008044
:10288000014B01221A6070474C0E0020AFF300800C
:102890002C4A2D4B10682D49F0B433F810602C4DA4
:1028A0002C4B2D682C4C0130360910608E60186856
:1028B00035F8105001302D0918604D61216861B163
:1028C000264C27482668274D046836F814702E6871
:1028D000254D01343E4304606E612448006840B9D0
:1028E00023480468002C28D00468013C0460006878
:1028F00018B3204C10682268124C904208BF002286
:102900001D4808BF22601A68036812489A4204BF33
:1029100000230360124B1A68914204BF00221A6020
:10292000164B1B684BB9164B1A6812B1154A012198
:10293000116001221A60F0BC7047134B01221A602B
:10294000F0BC7047500E00206C0F00200074004057
:10295000D00C0020380E0020440F00204C0F002027
:10296000640F0020B00C002000080048D8F90020B7
:1029700018080020CCF900208C0C00204C0E002000
:10298000940C0020900C0020680F0020AFF3008012
:10299000234B1A6870B44AB1224B234C1968234860
:1029A00034F811400131240919608460204B1B6800
:1029B00063B1204820490568204C086835F810604C
:1029C00025681F4C01303543086065611D49096861
:1029D00039B91D490868E8B1086801380860096814
:1029E000C1B110490868824204BF00220A60124A3D
:1029F00011688B4204BF00231360144B1B684BB952
:102A0000134B1A6812B1134A0121116001221A6096
:102A100070BC7047104B01221A6070BC704700BF39
:102A2000CCF90020500E00206C0F002000740040F4
:102A3000440F00204C0F0020640F0020B00C002039
:102A400000080048D8F90020180800204C0E00208B
:102A5000940C0020900C0020680F0020AFF3008041
:102A6000424B434A19684348F0B432F81140424A95
:102A700001312409196084601168E1B110683F498F
:102A8000013810600A681B683849934204BF00236C
:102A90000B603B4B1A6812B13A4A012111603A4A65
:102AA00012681AB901221A60F0BC7047374B012234
:102AB0001A60F0BC7047364A1268013A072A51D8AA
:102AC000DFE802F03C46320446463C324FF0A0427A
:102AD0001046916841F004019160026856074FF07A
:102AE000A041FAD50A6C4FEA021C1FFA8CFC294956
:102AF000294C2A4D0A682A4E20682D683668013212
:102B0000471CAA42276026F810C00A6002DB1F4A51
:102B100001211160194A1968126814489142B2D112
:102B200000240A460460AEE71E48826842F00402B0
:102B3000826002681B495207FBD5D3E71A488268B6
:102B400042F004028260026817495407FBD5C9E7C6
:102B50001648826842F004028260026813495507F1
:102B6000FBD5BFE74FF0000CC1E700BF500E0020BF
:102B70006C0F00200074004018080020CCF90020E1
:102B8000940C0020900C00204C0E0020680F0020B8
:102B9000540E0020580C0020580E0020140800206D
:102BA000B80C002000050050000400500001005047
:102BB000694A6A4B10686A492DE9F00F33F81060D2
:102BC000684C694B2468694D0130360910608E608D
:102BD000186834F810400130240918604C612C68E2
:102BE000002C48D1624863490E68FEB962490F68FB
:102BF000002F5BD16149096859B1614C614E216870
:102C0000614F366801F1010CC4F800C03C6926F838
:102C100011405E4C5E4E216836680131B142216040
:102C20003CDB5C492C6801250D6002E00D68013D2C
:102C30000D60594D11682A68474D914208BF002226
:102C4000564908BF2A601A680B6847499A4204BF70
:102C500000230B600368464AA34204BF00231360AD
:102C60004F4B1B68E3B94F4B1A689AB901221A609F
:102C7000BDE8F00F70474C493D480F684B4E016866
:102C800037F811C03768404E01314CEA0707016040
:102C90007761A8E7464A01211160E7E72C68C8E799
:102CA0003C4B01221A60BDE8F00F7047DFF8D0C03E
:102CB000404CDCF800102468A1424FF0A04108BF4E
:102CC000CCF800608C683C4E44F004048C60B16821
:102CD00041F00401B1603168374C4907FBD54FF032
:102CE000A048364E3649D8F84090D6F84080266C39
:102CF000D1F840A0002F7FF77DAF224CDCF8001008
:102D00002468360101F1010B012FCCF800B024F842
:102D100011604FEA410C1A4E3FF46CAF64444FEA25
:102D2000081801F1020C022FC6F800C0A4F80280B6
:102D30003FF460AF4FEA0A1A01F1030C032FC6F803
:102D400000C0A4F804A03FF455AF04314FEA0919BC
:102D50003160A4F806904DE7500E00206C0F002063
:102D600000740040D00C0020380E0020440F0020DA
:102D7000640F00201808002004080020400F0020E5
:102D8000580E0020B80C002000080048580C002005
:102D900014080020680F0020CCF900208C0C0020C3
:102DA0004C0E0020940C00204C0F0020B00C002092
:102DB000900C0020980C00200004005000010050EE
:102DC00000050050AFF30080AFF30080AFF3008048
:102DD000024B1A6842F080021A60704700440040BB
:102DE000064B5A6822F001025A60EFF309836833F8
:102DF00083F30988002383F31188704730EF00E0E4
:102E000030B4202383F311880B4B0C4C1A682468D0
:102E1000013A0A444D1E4942054402EA0100221AC1
:102E2000294091429ABF091819600020002383F3BA
:102E3000118830BC704700BFD40C0020CC0C00209F
:102E4000FEE700BFAFF30080AFF30080AFF3008078
:102E5000014B5B6883607047001000E0AFF30080B7
:102E600030B4202383F311880E4B1A78022A10D134
:102E7000D9680D4C0D4800224FF000550A60CA6019
:102E80000A61C4F8805084F81D23C26922F002024E
:102E9000C261002201215A60197082F3118830BC8E
:102EA000704700BF540F002000E100E00010024016
:102EB00030B4202383F311880B4A5168D3684C68DF
:102EC000D8620021012503205D61107059621961EB
:102ED00014B1DA682A43DA6085221A60002383F38A
:102EE000118830BC704700BF540F0020AFF3008042
:102EF000202383F311880749CB6800220220087041
:102F00001A601A61D96821F0FF01D96082F3118833
:102F1000704700BF540F0020AFF30080AFF3008074
:102F20000EB42DE9F04F8AB007AB0DF11D0C14ADB6
:102F30000293954CCDF804C0C3EB0C0306950593A2
:102F40004FF025084FF00009671CB8F1000F13D0AF
:102F5000B8F1250F16D0DFF834B2DBF80020414677
:102F600092685846904794F801803C4609F101095F
:102F7000671CB8F1000FEBD148460AB0BDE8F04F2E
:102F800003B0704762782D2A03BFA278A71C4FF0C8
:102F9000010B4FF0000B302A04BF7A7801373C4612
:102FA0000CBF30262026002706E02B78043507EBDF
:102FB0008707227803EB4707A2F13003DBB2092B26
:102FC00004F10104F3D92A2AEFD02E2A4FF0000190
:102FD0002DD002F0DF034C2B36D094F80080A2F104
:102FE0004403342B00F2C580DFE803F0BBC3C3C346
:102FF000C3BBC3C3C3C3C3B9C3C3C3C3C338C3C33E
:103000008CC3C3C3C3C3C3C3C3C3C3AEBBC3C3C3E4
:10301000C3BBC3C3C3C3C3B9C3C3C38EC338C3C352
:103020008C002B78043501EB810103EB410114F88E
:10303000012BA2F13003DBB2092BF4D92A2AF0D0FC
:1030400002F0DF034C2BC8D12378002B00F09980CD
:10305000012094F801801A460444C0E70A22296836
:1030600007A80435FFF7E4FB029BC01A00F1FF3C00
:10307000CDF810C00DF11C0A3F1A27EAE777039735
:10308000BBF1000F15D17A42039292B19AF8001069
:10309000DFF8F8B02D297DD0039FDBF800303B48E6
:1030A0009B68314698470137F7D1039A0397C2EBE3
:1030B0000909049B002B12DBDFF8D0B00AF1FF37BF
:1030C0009A44DBF8003017F8011F9B682F48984797
:1030D0005745F6D1DDF810C009F10109E144039A22
:1030E000002A3FF431AFDFF8A4B09246DBF800309D
:1030F00026489B6831469847BAF1010AF6D1039BEE
:10310000994421E71022AAE7D5F800A0204BBAF194
:10311000000F08BF9A4647F6FF739AF8000004357F
:10312000002908BF1946002853D05144534601E0F6
:1031300099423FD05A780133002AF9D1CAEB0300F3
:10314000431E0493202697E705982B688DF81C30C2
:10315000421E0435049220260DF11C0A8CE7082239
:103160007DE72968002905F104052BDB07A80A2261
:1031700078E705988DF81C20421E04920DF11C0A78
:103180007AE798462BE700BF00640008600E002035
:10319000AC640008302E7FF47FAFDBF80020584687
:1031A00092689047049B013B0AF1010A09F1010969
:1031B000049371E7CAEB010000F1FF3CCDF810C0A9
:1031C000202659E72D2349428DF81C300DF11D00B2
:1031D000CDE74FF0FF33049320264DE7AFF3008097
:1031E000054A064B916821F01F0191609A6822F010
:1031F0001F029A60704700BF000300500007005094
:103200002DE9F00F02F0030A5746C2F38006C2F31D
:10321000C105C2F34114C2F3C31B00230CE0026AD0
:1032200022EA0C0C4CEA08020262490843D07600FC
:10323000AD00A400BF000133CA07F6D542684FF0C5
:10324000010808FA03FC22EA0C02324342604FF004
:10325000030903FA08F2D0F808C009FA02F2D243CF
:1032600002EA0C0C4CEA050CC0F808C0D0F80C803F
:1032700003F0070C02EA080848EA04084FEA8C0C3D
:103280004FF00F09BAF1020FC0F80C800BFA0CF8DE
:1032900009FA0CFC12D0D0F8009002EA09023A4375
:1032A000072B0260BBD9426A22EA0C0C4CEA0802E6
:1032B00049084262BBD1BDE8F00F7047072B0ED81A
:1032C000D0F8209029EA0C0C4CEA0808C0F82080BD
:1032D000D0F800C002EA0C023A430260A5E7D0F839
:1032E000249029EA0C0C4CEA0808C0F82480EFE787
:1032F000202383F31188124B5B6813F4006302D11F
:1033000083F311887047F1EE103AEFF309830D4A09
:103310004FF08071D26843F8082C43F84C1CA3F19D
:10332000680282F30988084A11689269896892687C
:1033300091428CBF054A064A43F8502C704700BFA3
:1033400000ED00E030EF00E0C80E0020550300085B
:1033500058030008AFF30080AFF30080AFF30080A4
:103360004FF080432DE9F0411A69920703D4BDE87C
:10337000F041FFF7BDBF00221A61202383F31188BB
:103380001D4C4FF08045E369A06A6A6A9968161A75
:103390008E4204F11C071DD34FF0000820261A6846
:1033A000D3F80CC00144BA42A1625760E261C3F88D
:1033B0000C8008BFC5F80C8088F311881869E047B5
:1033C00086F31188E3696A6AA06A9968C0EB020C07
:1033D0006145E4D9BB4208D00144891A012998BF4C
:1033E00002214FF080430A445A63002383F311887B
:1033F000BDE8F041FFF77CBFC80E0020AFF30080AE
:1034000008B50B4B1878DA6800210428116107D140
:103410000220187011601161D16821F0FF01D160A4
:103420005B6803485B689847BDE80840FFF760BFEA
:10343000540F0020AFF30080AFF30080AFF30080A3
:1034400008B5084B5A6B1A6802F002025A632AB197
:10345000054843682121D3F80C319847BDE808405E
:10346000FFF746BF00040140D0F90020AFF3008011
:10347000164B5A6919680A4010B502F040445C6165
:10348000530013D4002C19DB104B596B1A6A0A40F5
:1034900002F001025A632AB10D4843682021D3F893
:1034A00004319847BDE81040FFF722BF0848436841
:1034B0001E21D3F8F4309847002CE5DA044843681D
:1034C0001F21D3F8FC309847DEE700BF000401401D
:1034D000D0F90020AFF30080AFF30080AFF300809D
:1034E000124B134A596910B51C680C402240A102C6
:1034F0005A6114D462020BD4A30005D50D48436869
:103500001D21D3F8EC309847BDE81040FFF7F0BE1E
:10351000084843681621D3F8B4309847ECE70548CB
:1035200043681521D3F8AC309847E3E70004014025
:1035300000006020D0F90020AFF30080AFF30080DE
:1035400008B5094B59691A680A4002F480125A6199
:103550002AB1064843681421D3F8A4309847BDE83F
:103560000840FFF7C5BE00BF00040140D0F90020AD
:1035700008B5094B59691A680A4002F400225A61D9
:103580002AB1064843681321D3F89C309847BDE818
:103590000840FFF7ADBE00BF00040140D0F9002095
:1035A00008B5094B59691A680A4002F480225A6129
:1035B0002AB1064843681221D3F894309847BDE8F1
:1035C0000840FFF795BE00BF00040140D0F900207D
:1035D00008B5094B59691A680A4002F400325A6169
:1035E0002AB1064843681121D3F88C309847BDE8CA
:1035F0000840FFF77DBE00BF00040140D0F9002065
:1036000008B5094B59691A680A4002F480325A61B8
:103610002AB1064843681021D3F884309847BDE8A2
:103620000840FFF765BE00BF00040140D0F900204C
:103630001D4B10B55A691C68144004F47C425A6151
:1036400062052AD4230522D4E0041AD4A10412D49A
:1036500062040AD4230404D5144843680F21DB6FA5
:103660009847BDE81040FFF743BE104843680E215D
:103670005B6F9847EEE70D4843680D21DB6E984776
:10368000E6E70A4843680C215B6E9847DEE7074887
:1036900043680B21DB6D9847D6E7044843680A214D
:1036A0005B6D9847CEE700BF00040140D0F90020D1
:1036B000194B10B55A691C68144004F478725A61A9
:1036C000A30622D460061AD4210612D4E2050AD435
:1036D000A30504D5114843680921DB6C9847BDE870
:1036E0001040FFF705BE0D48436808215B6C984702
:1036F000EEE70A4843680721DB6B9847E6E707488F
:10370000436806215B6B9847DEE704484368052160
:10371000DB6A9847D6E700BF00040140D0F90020DB
:1037200008B5084B59691A680A4002F010025A613C
:1037300022B10548436804215B6A9847BDE8084008
:10374000FFF7D6BD00040140D0F90020AFF30080A0
:1037500008B5084B59691A680A4002F008025A6114
:1037600022B1054843680321DB699847BDE808405A
:10377000FFF7BEBD00040140D0F90020AFF3008088
:1037800008B5084B59691A680A4002F004025A61E8
:1037900022B10548436802215B699847BDE80840AB
:1037A000FFF7A6BD00040140D0F90020AFF3008070
:1037B00008B5084B59691A680A4002F002025A61BA
:1037C00022B1054843680121DB689847BDE80840FD
:1037D000FFF78EBD00040140D0F90020AFF3008058
:1037E00008B5084B59691A680A4002F001025A618B
:1037F00022B10548436800215B689847BDE808404E
:10380000FFF776BD00040140D0F90020AFF300803F
:103810000E4A0F4B5168F0B486685F6F4468C56804
:10382000D0E90423891BC91B521843F10003C0E9E6
:10383000042303688160A14205F1010588BF41604E
:103840009942C56038BF0160F0BC7047001000E0CD
:10385000C80E0020AFF30080AFF30080AFF300800C
:10386000084B30B41A689969146881F82000012562
:10387000636082F820501C60104630BC9A61FCF7EF
:1038800055BD00BFC80E0020AFF30080AFF300802D
:10389000F0B587B0002955D0424C4368A26982E850
:1038A00009001A604B1C426048D02546012955F892
:1038B0001C3F3D4E05924FF0804008BF0221AB42B5
:1038C000426A04965AD0A66A921B89189A6831D225
:1038D00091423CBF76184663914204D91B68891A0D
:1038E0009A688A42FAD35A68029201AE019316602E
:1038F0005E6003919A684FF0FF30511A99606062E0
:103900000420FFF7ADFF049B83B1E369254AB3426E
:103910001BD0029A019B1360019B0021AB425A60AD
:10392000049103D09968039A0A449A60A369586A7B
:1039300007B0F0BD1B68891A9A68CDE70420FFF72D
:103940008FFFF3E74FF0FF30F2E7019BD3610021D7
:10395000AB425D60049121D09968039D906A6A181A
:103960004FF080419A604B6A181A8242DED9121ACF
:10397000012A98BF022213444B63D7E701AE01EB43
:10398000020E00270223019502950391A262C0F85E
:1039900034E0E66107612662C360B1E74FF080431F
:1039A000D960C3E7C80E0020B1270008AFF300803C
:1039B0002DE9F04F984683B004468B461546C769FB
:1039C000202383F311884FF0804300265B6A434431
:1039D00008F1FF3A0193B146A368FBB1A369A1685E
:1039E0005A1C0139A261A1601B788BF80030236951
:1039F000A2699A4224BFE368A3610BF1010B0FB1E6
:103A00002046B84789F31188013D06F1010617D019
:103A1000202383F31188A368002BDFD11AF1030F51
:103A200012D84FF08042516A019A511A884505D345
:103A30002046FFF72DFF0028CED0002383F3118806
:103A4000304603B0BDE8F08F20464146FFF720FF27
:103A50000028C1D0F1E700BFAFF30080AFF30080D2
:103A6000F8B504460F461646202383F3118803E079
:103A7000FFF70EFF00281ADBA56820463146002D0F
:103A8000F6D06369A1685A1C01396261A1601F7098
:103A9000236962699A4224BFE3686361E3690BB1F9
:103AA00020469847002383F311880020F8BD85F352
:103AB0001188F8BDAFF30080AFF30080AFF3008052
:103AC000034B044819784FF0FF32FFF7C9BF00BF1E
:103AD000540C0020900E0020AFF30080AFF3008064
:103AE00010B5C1B204464FF0FF320448FFF7B8FFEB
:103AF000034B1A6854401C6010BD00BF900E00209C
:103B0000540C0020AFF30080AFF30080AFF30080CF
:103B100070B5124C002800EA04040646B8BF00F154
:103B2000FF06002C4FEA262613DB0D4D0D48E1B2AF
:103B30004FF0FF32FFF794FF2B680A485C40F1B268
:103B40004FF0FF322C60FFF78BFF2B685E402E603A
:103B500070BD013C64F0FF040134E6E7FF00008023
:103B6000540C0020900E0020AFF30080AFF30080D3
:103B70002DE9F84F344B1B68002B5FD1334B18688D
:103B8000002852D1DFF8D080DFF8D0B0FFF7A8FFCF
:103B9000D8F80000FFF7A4FF2D4A1068FFF7A0FF38
:103BA000DBF80000FFF7B4FF294A1368002B41D06F
:103BB000D8F8002002F10109002A1CDDDFF894A0EA
:103BC0004FEA49060027DBF80030002B0CDD7D00B2
:103BD0000024DAF80030585BFFF79AFFDBF800307A
:103BE00001349C423544F4DBD8F8003001379F4261
:103BF000E9DB174A1368B3B1DBF80030002B12DDA4
:103C00000024144E2546D8F800203368224401359C
:103C100033F81200C0F30C00FFF77AFFDBF8003036
:103C20009D424C44EFDBBDE8F88F0120BDE8F84F22
:103C3000FFF756BFD8F800904A46BDE70320BDE81D
:103C4000F84FFFF74DBF00BF4C0E0020900C002036
:103C5000400F0020B80C00200408002014080020A9
:103C600038B501F180040546E1B24FF0FF32074854
:103C7000FFF7F6FE064B1A6805F59C4054401C60A1
:103C80002030BDE83840FFF743BF00BF900E002052
:103C9000540C0020AFF30080AFF30080AFF300803E
:103CA0003030FFF7DDBE00BFAFF30080AFF3008020
:103CB00030304FF0FF32FFF7D3BE00BFAFF30080CC
:103CC0002DE9F04F984683B004468B461546C769E8
:103CD000202383F311884FF0804300265B6A43441E
:103CE00008F1FF3A0193B146A368FBB16369A1688B
:103CF0005A1C01396261A1609BF800201A70236987
:103D000062699A4224BFE36863610BF1010B0FB152
:103D10002046B84789F31188013D06F1010617D006
:103D2000202383F31188A368002BDFD11AF1030F3E
:103D300012D84FF08042516A019A511A884505D332
:103D40002046FFF7A5FD0028CED0002383F311887D
:103D5000304603B0BDE8F08F20464146FFF798FD9E
:103D60000028C1D0F1E700BFAFF30080AFF30080BF
:103D70003030FFF7A5BF00BFAFF30080AFF3008086
:103D800030304FF0FF33FFF79BBF00BFAFF3008031
:103D900000228168084B10B4044680F820201B687C
:103DA0009A688A42FBD25A68626023602046146097
:103DB0005C605DF8044B7047C80E0020AFF30080D4
:103DC000F8B50468A04207460D4620D0002602E060
:103DD0002468A7421BD0E3682B43E36015B1226936
:103DE0001342F5D06068A268416B90F820300A4316
:103DF0000A2B42630CD00B2BEAD1436A1A40934240
:103E0000E6D14662FFF7C4FF2468A742E3D1F8BDBC
:103E1000436A1A42DCD04662FFF7BAFFF4E700BFFC
:103E2000FEE700BFAFF30080AFF30080AFF3008088
:103E30002DE9F041644D6E6D3768F46934622207F4
:103E400056D1E30548D4A00618D4390601D5220678
:103E500069D463060ED5202383F311886A6CAB6C9A
:103E600059489A4200F08B8027F0400737600023C2
:103E700083F31188BDE8F041FFF73ABA202383F3BA
:103E80001188B28C95F85C106B6901EA0208002B6E
:103E90007ED02B6A6A6A4C4893427ED068694A4A4F
:103EA000591C01302962686183F80080296AEB6936
:103EB000994261D24449EB6801F10C02934207D068
:103EC0001868C8600021426018465962FFF760FF19
:103ED000002383F31188B8E7202383F311883B483C
:103EE0004FF40071FFF76CFF002383F31188AAE7FA
:103EF00014F0080F14BF80210021E30748BF41F0F0
:103F00002001A00748BF41F04001620748BF41F4CB
:103F10008071202383F311882C48FFF751FF002381
:103F200083F311888DE7202383F31188AB6C6A6CCF
:103F300025489A423BD0AA6B2348511CA963296C9F
:103F40005A1CAA648A4293F8008001D3C36B83642D
:103F50001D492B6B01F13002934207D018680863AA
:103F60000021426018465962FFF712FFA6F8288028
:103F7000002383F311886CE7936913629AE7836BDC
:103F8000002B3FF471AF04301021FFF719FF6BE7EE
:103F90000E480421FFF714FF7BE74269002A3FF433
:103FA0007DAF04304FF48061FFF70AFF90E7826B2A
:103FB000002AC0D004300821FFF702FF27F0C00319
:103FC00043F040033360D3E7600E0020640E00200E
:103FD0000C30FFF7EDBC00BFAFF30080AFF3008003
:103FE0000C304FF0FF33FFF7E3BC00BFAFF30080AE
:103FF000B7482DE9F84F4FF4005100220646FFF76D
:10400000FFF80024012505FA04F1B1484022FFF72A
:10401000F7F804F11003013405FA03F30D2CB36132
:10402000F1D1AC49AC4B4869AC4A40F08050486192
:10403000486940F000504861996821F4403141F4EA
:1040400080319960916821F4403141F48031916070
:10405000996821F01F019960916821F01F0191601A
:1040600099684FF0A04241F480019960936843F051
:10407000010393601368DC07FCD5994A936843F009
:10408000010393601368D807FCD5964A936843F000
:10409000010393601368D907FCD5934A936843F0F2
:1040A000010393601368904CDB07FBD54FF0A045EC
:1040B0004FF0904001210322FFF7A2F82B6B854EB1
:1040C00023F00F032B632B6B23F4F86343F04003BF
:1040D0002B634FF0904040210322FFF791F8804B73
:1040E00082481A6B22F00F021A631A6B22F4F862EC
:1040F00042F0C0021A6301210322FFF781F8B2697E
:104100007B4B42F00102B2611A6842F001021A6070
:104110001A6842F060021A601A6822F00C0242F03B
:1041200008021A604FF0904080210322FFF768F8E0
:104130006E484FF480410322FFF762F86B4802217A
:104140000322FFF75DF8674B1A6B22F00F021A6328
:104150001A6B22F4F86242F040021A634FF090406A
:1041600002210322FFF74CF8B269624B5F4842F02C
:104170000102B2611A6842F001021A601A6842F044
:1041800060021A601A6822F00C0242F004021A60FF
:104190004FF400510322FFF733F854484FF4805195
:1041A0000322FFF72DF8236B504823F00F032363FE
:1041B000236B23F4F86343F0C00323634FF40061DF
:1041C0000322FFF71DF8B2694B4B484842F0010249
:1041D000B2611A6842F001021A601A6842F0600285
:1041E0001A601A6822F00C0242F004021A604FF4BE
:1041F00000410322FFF704F84FF090401021032202
:10420000FEF7FEFF4FF0904020210322FEF7F8FF5B
:10421000F3693A4A3A4943F00053F36114680020C5
:1042200044F001140A231460906050610B60AA6985
:1042300042F0E062AA612A6B22F00F022A632A6B25
:1042400022F4F86242F4906229462A632C468A6876
:1042500042F004028A600A685707FCD5226C013BD1
:104260001044F4D107EE100AF8EEC77A9FED257AD4
:10427000254ADFF8C080254D254C2648C2F800802D
:10428000C7EE277A244ADFF8B0A0DFF8B090DFF855
:10429000B0C0224F224E23492A6022600260224A87
:1042A000C9F800304FF0010B4FF47A783B6033606F
:1042B0000B60CAF800B0CCF800802023C2ED007A71
:1042C00083F31188194B1A4D1A785D603AE000BFEC
:1042D0000008004800100240000300500007005092
:1042E0000001005000040050000500500004004888
:1042F0003C00014040000140440001400074004087
:1043000000080020000040470C080020D00C0020CE
:10431000B80C00204C0F00206C0F0020CCF90020BE
:104320008C0C0020D8F9002008080020D0F90020CB
:10433000B46400086F12833A04080020400F002084
:1043400014080020012A00F0AF800021894B0A46A2
:1043500001274FF00F0B39E00F2A5CD822F003063B
:1043600006F1804606F5803602F0030CD6F8088088
:104370004FEA8C0C0BFA0CFAC0F3031928EA0A086E
:1043800009FA0CFC48EA0C0CC6F808C014F0FC5FF3
:1043900016D1C6076AD59E6826439E60E64310F094
:1043A000020FD86814BF20433040D86068184068B6
:1043B000002872D0186804431C60586806405E608C
:1043C0000831B1F5887F02F101021CD0685802F073
:1043D0001F04460707FA04F4BED41F2A37D91E6A01
:1043E000E04306401E625E6A06405E629E6A0640C8
:1043F0009E62DE6A08313040B1F5887FD86202F1F2
:1044000001025C63E2D15C4A02231370002383F350
:104410001188BDE8F88F1F2AB8D934F00306CFD130
:10442000C6072BD59E6A26439E62E64310F0020F14
:10443000D86A14BF20433040D8626818406828B357
:10444000186A04431C62586A06405E62B8E71E6838
:10445000E04306401E605E6806405E609E6806405F
:104460009E60DE683040D8605C61A9E7D3F808C080
:10447000E64306EA0C0CC3F808C090E7D3F828C05E
:10448000E64306EA0C0CC3F828C0CFE7586A044399
:104490005C62186A06401E6292E7586804435C60DA
:1044A000186806401E608BE7344B60214FF0400CCB
:1044B00083F806134FF48077C3F880C14FF4007679
:1044C000C3F800C0022404204FF0800A4FF4806932
:1044D0004FF400084FF4805B4FF0080C83F807138B
:1044E000C3F880A1C3F800A083F80813C3F8807153
:1044F0001F6083F80913C3F880611E6083F80A13F4
:10450000C3F88091C3F8009083F81713C3F8808133
:10451000C3F8008083F82813C3F884715F6083F8C0
:104520000113C3F880411C6083F82913C3F8846128
:104530005E6083F84C13C3F888B1C3F808B083F801
:104540000213C3F88001186083F80313C3F880C115
:10455000C3F800C083F84013C3F888219A6083F839
:104560004113C3F888419C6083F84213C3F8880163
:104570009860EAE600040140D0F9002000E100E084
:10458000F0B4202383F31188194A13785060012B6B
:1045900016D094680168C568D3688668B4FBF1F4E6
:1045A000013C002125F0FF00A4B2022519605E60E5
:1045B00015709C621961D86081F31188F0BC704756
:1045C0000C4B0D4CDD69946045F00205DD611D6901
:1045D0000A4945F0020C00274FF000552026C3F889
:1045E00010C01F6181F81D63C1F880510D60D1E7D3
:1045F000540F0020001002400051250200E100E0AD
:104600002DE9F0014D4FDFF854C1D7F808804C4D2B
:104610004C494D4E4D484E4C4E4B4F4A28F01F08CA
:1046200048F00108C7F80880DCF8087027F01F0878
:1046300048F001084FF0A047CCF80880D7F814C024
:104640002CF0380C4CF0100CC7F814C0D7F830C060
:104650002CF00F0CC7F830C0D7F830C02CF4F86C31
:104660004CF0400CC7F830C06F6927F0380747F0AE
:1046700010076F618F6947F001078F61376847F056
:1046800001073760376847F060073760376827F001
:104690000C0747F0080737602E6B26F00F062E63D5
:1046A0002E6B26F4F86646F040062E63456925F425
:1046B000606545F4806545618D6945F001058D6152
:1046C000256845F001052560256845F060052560F1
:1046D000256825F00C0545F008052560046B24F0DD
:1046E0000F040463046B24F4F86444F0C00404630E
:1046F000586920F4606040F480605861886940F037
:1047000001008861116841F001011160116841F0F8
:1047100060011160116821F00C0141F00401116089
:104720001A6B22F00F021A631A6B22F4F86242F03D
:10473000C0021A63BDE8F001704700BF00030050DB
:1047400000040050001002404000014000010050F1
:104750003C000140000500504400014000070050AB
:1047600070B5202304460E4683F3118803E0FFF75B
:104770008FF800281BDBA56820463146002DF6D0B7
:10478000A269A0682169531C8B4200F1FF30A3612C
:10479000A06028BFE368157828BFA361E3690BB167
:1047A00020469847002383F31188284670BD85F37F
:1047B000118870BDAFF30080AFF30080AFF30080CD
:1047C00010B50F484FF0FF31FFF7CAFF0D4B1B68C4
:1047D000984212D025214FF0FF320B48FFF740F9E5
:1047E0000A4B09481C6884F02504E1B24FF0FF32FF
:1047F0001C60FFF735F9002010BD012010BD00BF7F
:104800006C0E0020500C0020900E0020540C002054
:1048100008B54FF0FF310448FFF7A2FF034B1A68B9
:1048200042401A6008BD00BF6C0E0020500C0020F2
:1048300070B50B4E0B4C30464FF0FF31FFF790FF39
:10484000236805466B4030464FF0FF312360FFF789
:1048500087FF23684340236005EB002070BD00BF45
:104860006C0E0020500C0020AFF30080AFF30080EE
:104870000C30FFF775BF00BFAFF30080AFF30080CF
:104880000C304FF0FF31FFF76BBF00BFAFF300807C
:104890002DE9F00F624E6349306840B10B68624CFD
:1048A000624A34F81340013324090B609460604D70
:1048B0002C68002C40D15F4A5F4B1F6817BB5F4BD1
:1048C000D3F800C0BCF1000F56D15D4B1B685BB143
:1048D0005C485D4C03685D4F246803F1010CC0F82F
:1048E00000C0386924F8130059485A4C03682468FA
:1048F0000133A342036036DB574B2C683068012537
:104900001D6002E01D68013D1D600B684549834242
:1049100004BF00230B601368464AA34204BF002370
:1049200013604E4B1B680BBB4D4B1A68BAB9012282
:104930001A60BDE8F00F70474A4B3E4AD3F800C0FA
:10494000494F1368D7F800803CF813903F4F03F1AC
:10495000010C49EA0803C2F800C07B61ACE7434A96
:1049600001211160E3E730682C68CEE73A4B012261
:104970001A60BDE8F00F7047DFF8C8803C48D8F8EF
:10498000003000683B4C83424FF0A04308BFC8F89A
:104990000070986840F004009860A36843F0040336
:1049A000A360236833485B07FBD54FF0A047324C28
:1049B000324BD7F84090276C046CD3F840A0BCF180
:1049C000000F82DD2048D8F800300068240103F190
:1049D000010BBCF1010FC8F800B020F813404FEAFA
:1049E0004308184C3FF471AF40443F0103F1020803
:1049F000BCF1020FC4F8008047803FF466AF4FEA75
:104A00000A1ADF1CBCF1030F2760A0F804A03FF4D2
:104A10005CAF04334FEA09192360A0F8069054E70D
:104A2000CCF90020500E00206C0F002000740040D4
:104A3000440F0020640F0020180800200408002004
:104A4000400F0020580E0020B80C0020000800483D
:104A5000580C002014080020680F00204C0E002085
:104A6000940C00204C0F0020B00C0020900C002073
:104A7000980C002000040050000100500005005078
:104A80003E4B18682DE9F00100282CD13C4B1B68E7
:104A90004BB13C4A3C4913683C4809685C1C1460B3
:104AA000026921F813203A4A3A4913680968013328
:104AB0008B4213605CD0384A126812B1374A012128
:104AC0001160374A1268934202DB344B01221A60AC
:104AD000344B1A6812B1344A0121116001221A6064
:104AE000BDE8F0017047274C304A2368126830490E
:104AF000934204BF002323604FF0A0439A6842F022
:104B000004029A608B6843F004038B600B68284AA8
:104B10005B07FBD54FF0A0452649274B2F6C0D6C4A
:104B2000166CD3F840C00028B0DD174A236812681D
:104B30001449360103F101080128C4F800804FEA46
:104B4000430422F81360A1D022442D019C1C0228AA
:104B50000C6055809AD04FEA0C1CDC1C03280C60BA
:104B6000A2F804C092D004333F010B60D7808DE7D8
:104B70001249134A0968091191609CE70408002052
:104B8000400F0020580E0020B80C002000080048FC
:104B9000580C00205C0C00204C0E0020680F0020F8
:104BA00014080020940C0020900C0020980C002089
:104BB0000004005000010050000500505C0E002071
:104BC00000740040AFF30080AFF30080AFF30080CB
:104BD000394B18682DE9F001002828D1374B1B68A4
:104BE0004BB1374A37491368374809685C1C146071
:104BF000026921F81320354A3549136809680133E1
:104C00008B4213600DDA334B1B6853B9324B1A6871
:104C100012B1324A0121116001221A60BDE8F0018F
:104C200070472F4B01221A60BDE8F0017047244CF9
:104C30002C4A236812682C49934204BF0023236046
:104C40004FF0A0439A6842F004029A608B6843F0E8
:104C500004038B600B68244A5B07FBD54FF0A0452B
:104C60002249234B2F6C0D6C166CD3F840C00028E2
:104C7000B4DD144A236812681149360103F10108B2
:104C80000128C4F800804FEA430422F81360A5D03D
:104C900022442D019C1C02280C6055809ED04FEAB6
:104CA0000C1CDC1C03280C60A2F804C096D0043352
:104CB0003F010B60D78091E704080020400F0020DF
:104CC000580E0020B80C002000080048580C0020A6
:104CD000140800204C0E0020940C0020900C0020A2
:104CE000680F0020980C00200004005000010050C4
:104CF00000050050AFF30080AFF30080AFF30080F9
:104D00006148624A036812686149934208BF002300
:104D10002DE9F00108BF03604FF0A0439A6842F00C
:104D200004029A608B6843F004038B600B68584A56
:104D30005B07FBD55749584B09684FF0A044002941
:104D4000266C1F6C156CD3F840C44FEA051522DDA4
:104D5000524A036812684C4C03F101080129C0F85B
:104D600000804FEA430822F8135014D042443F0118
:104D700003F102080229C4F8008057800BD04FEAE3
:104D80000C1CDF1C03292760A2F804C003D00433E5
:104D900036012360D680424B1B6843B103683F4A0B
:104DA000404912685C1C0460096922F813103E4BEC
:104DB0003E491A6809683E4801328A421A6004BFB7
:104DC00000221A603B4A0068116801391160E0B99D
:104DD00039480268032A0CD8DFE802F01D31390295
:104DE000364B1A6812B9364A012111601A68013A25
:104DF0001A60344B1A6822B901221A60BDE8F0012A
:104E00007047314A01211160F6E72D4B01221A60EB
:104E1000BDE8F00170472D4B1A68013A1A601B6813
:104E20000BB9012303600029E3D1254A2849012356
:104E30000B601360234B1A68002ADDD0E1E7254B95
:104E40001B6863B9244B1B68AB42ECDD0DE0214AC3
:104E500012686AB9204A1268AA42E4DA0EE0012B0D
:104E6000E1D11D4B1B68AB42DDDA02230360DAE7B8
:104E7000012AD8D1184A1268AA42D4DD174A1B6801
:104E8000032404601360CEE7580E0020980C002025
:104E9000000400500408002000010050B80C00205D
:104EA000400F002000080048580C00201408002083
:104EB0004C0E0020C00E0020640C0020500F00207B
:104EC000680F0020940C0020900C0020AC0C0020F7
:104ED000600C0020880C0020480F00205C0C002093
:104EE00020490B6843F001030B600B681D4A9B07C8
:104EF000FBD5536823F00303536053685360114696
:104F00004B68184A13F00C03FAD1116801F0F9014B
:104F100011605360536A43F00103536211464B6AB8
:104F2000104A9807FBD5104B53604FF404513023BF
:104F3000D1621363136843F08073136013680949E7
:104F40009B01FBD5094B11221A604B6843F0020309
:104F50004B604B68034A03F00C03082BF9D1136B29
:104F6000136370470010024000241C000020024020
:104F700038B52022034682F31188104A9469A06A4A
:104F8000636204F12805A84206D00368A362FEF715
:104F9000FFFEA06AA842F8D194F8223043B994F8F1
:104FA00021309B0704D1636922691A612269536128
:104FB0000F20BDE83840FEF753BC00BFC80E0020EC
:104FC0000E4A106870B403689569136001260021C9
:104FD000AC685A6080F82060906185F8201000E08D
:104FE0001B689A68A242FBD85A686A602B602946FF
:104FF00015605D6070BCFBF799B900BFC80E00205A
:10500000F0B4134E002506F17007A6F110011AC97D
:10501000A3420DD204391A4651F8040F42F8040B8A
:10502000A242F9D3DA43144424F0030404342344A1
:1050300056F8042C934203D243F8045B9342FBD30B
:10504000BE4206F1100301D21E46DEE7F0BC7047F7
:10505000D4650008AFF30080AFF30080AFF30080A9
:10506000FEE700BFAFF30080AFF30080AFF3008036
:10507000704700BFAFF30080AFF30080AFF3008054
:10508000704700BFAFF30080AFF30080AFF3008044
:105090002DE9F0432DED068BB0EE40AAF0EE60AAAC
:1050A000B0EE418AF0EE618A9F4E8BB000F090F92D
:1050B00096F90030B0EE409AF0EE609A013306D0D7
:1050C000B0EE480AF0EE680A00F0D4FF40B9B0EE46
:1050D000490AF0EE690A0BB0BDEC068BBDE8F0831F
:1050E000B0EE4A0AF0EE6A0A00F0C4FF044668BB5C
:1050F00051EC180B00220023FBF7A0FD0028E6D09E
:105100008A4B96F900108A48089400220124CDE9C0
:1051100006234B1C8DED02AB8DED048B00940190AA
:105120000DD002290BD0684600F0CEFF002800F019
:105130009D80089B1BB101F005F9089B03609DED64
:10514000060B0BB0BDEC068BBDE8F08300240025F8
:1051500051EC1A0B22462B46FBF770FDE8B151ECDF
:10516000180B22462B46FBF769FD0746002854D052
:105170006F4A96F900300192012100228DED02ABB9
:105180008DED048BCDE9064500910892002BCAD025
:10519000664B0022CDE90623D1E7B0EE490AF0EED6
:1051A000690A00F05FFF0746002864D0002400254C
:1051B00051EC190B22462B46FBF740FD002886D008
:1051C000B0EE4A0AF0EE6A0A00F04CFF00283FF405
:1051D0007EAFB0EE480AF0EE680A00F043FF002808
:1051E0003FF475AF96F90030514A01920421002234
:1051F000022B8DED02AB8DED048BCDE906450091C0
:10520000089200F08C80684600F05EFF002800F0F5
:105210008680089B002B92D08DE7B0EE480AF0EE16
:10522000680A00F01FFF00283FF451AF51EC180B43
:1052300022462B46FBF70CFD00283FF448AF3C4BC1
:105240003178089701228DED02AB8DED048B8DE84E
:105250000C00002941D0374B00220229CDE906235A
:1052600035D101F06FF821230360D2E701F06AF82D
:10527000212303605DE7B0EE4A0AF0EE6A0A00F00F
:10528000F1FE002892D0B0EE480AF0EE680A00F075
:10529000E9FE00288AD0B0EE490AF0EE690A00F073
:1052A000E9FEE8B9224B3678089001228DED02AB79
:1052B0008DED048B8DE80C007EB1204629462246F8
:1052C0002B46FBF72DFB022ECDE90601C9D068461F
:1052D00000F0FAFE00289CD1C3E7CDE90645F6E7C9
:1052E000134A96F90030089703218DED02AB8DED3E
:1052F000048B8DE806000BBBDFF83C904FF0604854
:1053000022462B4651EC1A0BCDE90689FBF7A0FC8F
:1053100000283AD196F90030022B7FF474AF01F0E7
:1053200011F82223036074E71C0800200000F03FFE
:10533000446600080000F0FFFFFFEF47DFF88C90A5
:105340004FF0000822462B4651EC1A0BCDE9068996
:10535000FBF77EFC0028DDD00022194B51EC180B26
:10536000FBF7B4F904460D4645EC104B00F0B8FECF
:10537000224651EC100B2B46FBF760FC0028C9D1EC
:10538000104B0022CDE90623C4E700220C4B51EC60
:10539000180BFBF79BF904460D4645EC104B00F04B
:1053A0009FFE224651EC100B2B46FBF747FC0028D2
:1053B000B0D1054B4FF06042CDE90623AAE700BF0C
:1053C0000000E03F0000F0FFFFFFEFC70000F07FAC
:1053D0002DE9F04F55EC114B2DED048BB0EE419AB9
:1053E000F0EE619AB0EE408AF0EE608A25F0004857
:1053F00058EA04018FB057EC106B33D06C4B27F098
:105400000049994528DC25D0694B984524DC00F0FB
:105410008A80002FC0F28B804FF0000A9CBB644B47
:10542000984500F0A280634B984574D0B5F1804F49
:1054300000F00A84604B9D4225D1002F23DBB0EEA3
:10544000480AF0EE680A0FB0BDEC048BBDE8F04FDF
:1054500000F032BD002ED7D009F1404303F5801390
:10546000334306D19FED4E0B0FB0BDEC048BBDE86E
:10547000F08F52480FB0BDEC048BBDE8F04F00F048
:1054800027BE4FF0000AB0EE480AF0EE680A00F0BE
:10549000DFFD0EBBB9F1000F04D0464B27F04042B0
:1054A0009A4219D1002DC0F21984002FDCDA09F1DB
:1054B000404909F580195AEA090940F0958451ECF0
:1054C000100B02460B46FAF74DFF02460B46FBF760
:1054D00027FA41EC100BC7E7FB0F03F1FF3B5AEA39
:1054E0000B0258D0364B984570DD03F10473984594
:1054F00040F3FE83334B994540F3A083002D40F3E6
:10550000A08329A1D1E9000102460B46FBF7DEF892
:1055100041EC100BA8E7002DC0F24C84B0EE480A15
:10552000F0EE680AA0E7002C3FF473AF94E7264B37
:1055300098452DDCA3F1547398457FF76DAF4FEA82
:10554000285340F21342934240F35C84C3F58663D0
:10555000033324FA03F202FA03F3A3427FF45CAFAD
:1055600002F00102C2F1020A58E709F1404303F5D3
:10557000801333433FF476AF124B994540F3A28337
:10558000002DC0F25E83B0EE490AF0EE690A6BE7C7
:105590004FF0020A42E751EC180B92E7AFF300809C
:1055A000000000000000F03F9C7500883CE4377E5E
:1055B0000000F07F0000F03F0000E03F986400082A
:1055C0000000E041FFFFEF3FFFFF3F43B9F5801FC1
:1055D00080F2EE8351EC100B0022AB4BFBF776F818
:1055E0000B4641EC100B6FF034029946A74B4FEA83
:1055F0002951C9F31309A1F2FF3149F07F569945AA
:1056000001EB020C46F4401640F3CF83A04B9945C2
:1056100040F3108400270CF1010CA6F580163B46E0
:105620009C4ACDF804C0DB000B931344D3E900453A
:1056300059EC108B22462B4640463146FAF792FE33
:105640002246CDE908012B4640463146FAF78CFE4A
:1056500002460B4600209049FBF762F9CDE90C01A8
:10566000DDE90C23DDE90801FBF730F8CDE90401A1
:1056700071109DED047B41F0005101F50021CB1923
:1056800000218DED027B0291B146DDE90267002227
:1056900030463946CDE90623FBF718F802460B469B
:1056A000DDE90801FAF75EFE22462B46CDE9080146
:1056B000DDE90601FAF756FE02460B46404649462A
:1056C000FAF750FE02460B4630463946FAF7FEFF1F
:1056D00002460B46DDE90801FAF744FEDDE90C233A
:1056E000FAF7F4FFCDE90601DDE9040102460B46B5
:1056F000FAF7ECFF02460B4604460D46FAF7E6FFC2
:1057000051A3D3E900238046894620462946FAF76B
:10571000DDFF4FA3D3E90023FAF726FE22462B46EE
:10572000FAF7D4FF4CA3D3E90023FAF71DFE224673
:105730002B46FAF7CBFF4AA3D3E90023FAF714FE6E
:1057400022462B46FAF7C2FF47A3D3E90023FAF714
:105750000BFE22462B46FAF7B9FF45A3D3E90023F7
:10576000FAF702FE02460B4640464946FAF7AEFFFC
:10577000DDE9042304460D4630463946FAF7F4FDC8
:10578000DDE90623FAF7A2FF22462B46FAF7ECFDE5
:105790003246804689463B4630463946FAF796FF00
:1057A00000223E4BCDE90C01FAF7DEFD42464B46A6
:1057B000FAF7DAFD02980D46044622462B4630469B
:1057C0003946FAF783FF22462B46CDE90801DDE989
:1057D0000601FAF77BFF002206460F4620462946BF
:1057E0002E4BFAF7BFFDDDE90C23FAF7BBFD0246AD
:1057F0000B4640464946FAF7B5FDDDE90423FAF7C2
:1058000065FF02460B4630463946FAF7ADFD804645
:10581000894642464B46DDE90801FAF7A5FD0298A4
:1058200015A3D3E9002304460D46FAF74FFF14A34E
:10583000D3E90023CDE9060120462946FAF746FFC1
:10584000DDE9082306462BE0EF4E454A287ECA3F95
:1058500065DBC9934A86CD3F01411DA96074D13FE4
:105860004D268F515555D53FFFAB6FDBB66DDB3FF6
:10587000033333333333E33F000000E009C7EE3F27
:10588000F5015B14E02F3EBE000040438E980300FC
:1058900079B60B00686600080000F03F0000084081
:1058A0000F4620462946FAF75DFD02460B46404664
:1058B0004946FAF757FDBBA3D3E90023FAF706FFE1
:1058C00002460B4630463946FAF74EFD0B9CB24B6A
:1058D0002344D3E90023FAF747FDDDF804C0064668
:1058E00060460F46FAF78CFEAC4B234493ED007BE9
:1058F0008046894632463B46DDE906018DED047B54
:10590000FAF732FDDDE90423FAF72EFD42464B4655
:10591000FAF72AFD029842464B4604460D46FAF72E
:1059200021FDDDE90423FAF71DFDDDE90623FAF781
:1059300019FD02460B4630463946FAF713FD0AF1C7
:10594000FF3C5CEA0B0CCDE9020140F0B6819FED13
:105950007E7B8DED047B5BEC19AB4FF0000A524669
:105960005B4651EC190BFAF7FDFC2B462246FAF781
:10597000ADFEDDE902238046894651EC190BFAF7AA
:10598000A5FE02460B4640464946FAF7EDFC2B467B
:10599000CDE90201224650465946FAF797FE0646DF
:1059A0000F463B46DDE902013246FAF7DDFC7C4B4F
:1059B0009942804689460D4640F3508101F13F43AC
:1059C00003F5E003034340F0FF8161A3D3E9002323
:1059D000DDE90201FAF7C8FC324682468B463B46B7
:1059E00040464946FAF7BEFC02460B465046594629
:1059F000FBF74CF9002840F0E781CC464FEA2C53E6
:105A0000A3F2FE334FF4801018412844C0F30A512A
:105A1000DFF898E1A1F2FF344EFA04FEC1F582618D
:105A2000C0F3130420EA0E03033144F4801040FA5B
:105A300001F1002D0691BCBF49420691002230467B
:105A40003946FAF78FFC06460F463246DDE9020179
:105A50003B46FAF789FC069C24050B9400243EA3E0
:105A6000D3E9002320460D46FAF730FE3246804641
:105A700089463B4620462946FAF774FC02460B4607
:105A8000DDE90201FAF76EFC35A3D3E90023FAF74A
:105A90001DFE35A3D3E9002306460F4620462946BE
:105AA000FAF714FE02460B4630463946FAF75CFC1C
:105AB00006460F4632463B4640464946FAF754FCF6
:105AC00042464B4604460D46FAF74CFC02460B464E
:105AD00030463946FAF746FC224682468B46204637
